:020000040000FA
:100000000203D102059F75807F75A4F875F1FD7517
:10001000D4FF220205DCE5C8540453C8FB75CBFFAE
:1000200075CAEB42C822A20792022202056212049C
:100030006012000612005612073E12006612068376
:100040001206B31200161206C91207041207420262
:10005000070E2202031A75900875A50775F2077539
:10006000D50F220204E475BB0B75BCF953E8F843C5
:10007000E882220205241204603081031206D97539
:1000800097A512002E12069CD2AF7597A5E51614FF
:10009000701FD2CA7F647E001206431206197F6465
:1000A0007E00120643120619C2CA7FD07E071206CE
:1000B0001D120749506BC2071207341206E90516D4
:1000C000E51664047002F516E51614602414602A1F
:1000D00014603524037048C20712071CC2071207B8
:1000E00022C207120728C20712072E1206E90201D0
:1000F00081D20712071CC2078007C20712071CD251
:1001000007120722C207800CC20712071CC207127F
:100110000722D207120728D20712072E12061980CB
:10012000601207465061C2071200260517E51764E2
:100130000670021517E51714601814601E14602469
:1001400014602A14603024057037E4751B64F51AB6
:10015000802BE4751B2C751A018022E4751BF47545
:100160001A018019E4751BBC751A028010E4751B16
:1001700084751A038007E4751B4C751A04F519F58C
:10018000181206E902008A12074C400302008AC2D4
:1001900007120739E51760021517E51714601814E0
:1001A000601E14602414602A14603024057037E443
:1001B000751B64F51A802BE4751B2C751A018022BF
:1001C000E4751BF4751A018019E4751BBC751A02DD
:1001D0008010E4751B84751A038007E4751B4C7549
:1001E0001A04F519F5181206E902008AE88FF0A43E
:1001F000CC8BF0A42CFCE98EF0A42CFC8AF0EDA4AE
:100200002CFCEA8EF0A4CDA8F08BF0A42DCC3825E0
:10021000F0FDE98FF0A42CCD35F0FCEB8EF0A4FEC0
:10022000A9F0EB8FF0A4CFC5F02ECD39FEE43CFC55
:10023000EAA42DCE35F0FDE43CFC2275F008758271
:1002400000EF2FFFEE33FECD33CDCC33CCC5823360
:10025000C5829BED9AEC99E58298400CF582EE9B65
:10026000FEED9AFDEC99FC0FD5F0D6E4CEFBE4CD83
:10027000FAE4CCF9A88222B800C1B90059BA002D1D
:10028000EC8BF084CFCECDFCE5F0CBF97818EF2FD6
:10029000FFEE33FEED33FDEC33FCEB33FB10D70305
:1002A000994004EB99FB0FD8E5E4F9FA227818EFAE
:1002B0002FFFEE33FEED33FDEC33FCC933C910D70D
:1002C000059BE99A4007EC9BFCE99AF90FD8E0E41A
:1002D000C9FAE4CCFB2275F010EF2FFFEE33FEEDF0
:1002E00033FDCC33CCC833C810D7079BEC9AE899C0
:1002F000400AED9BFDEC9AFCE899F80FD5F0DAE4A2
:10030000CDFBE4CCFAE4C8F922EB9FF5F0EA9E427B
:10031000F0E99D42F0E89C45F022C0E0C0F0C083C7
:10032000C082C0D075D000C000C001C002C003C0F0
:1003300004C005C006C007750B00750A00750900EA
:10034000750800C2EDAFBDAEBEE4FCFDE5132FF5B0
:1003500013E5123EF512ED3511F511EC3510F510DF
:10036000E515151570021514E51545147048F514BA
:100370007515407B40FAF9F8AF13AE12AD11AC1011
:100380001202778F0B8E0A8D098C08751300751277
:1003900000751100751000E47FF07E0AFDFCAB0BC8
:1003A000AA0AA909A8081201ECE47BFF7A03F9F86C
:1003B0001202771206F9D007D006D005D004D00378
:1003C000D002D001D000D0D0D082D083D0F0D0E005
:1003D00032120052787FE4F6D8FD75812002041BAA
:1003E000020076E493A3F8E493A34003F68001F2BD
:1003F00008DFF48029E493A3F85407240CC8C3331E
:10040000C4540F4420C8834004F456800146F6DFEC
:10041000E4800B0102040810204080900664E47E12
:10042000019360BCA3FF543F30E509541FFEE493E1
:10043000A360010ECF54C025E060A840B8E493A3A8
:10044000FAE493A3F8E493A3C8C582C8CAC583CAD3
:10045000F0A3C8C582C8CAC583CADFE9DEE780BE8B
:100460007597A5E4F50FF50EF50DF50CE47FCCFEC0
:10047000FDFCAB0FAA0EA90DA80CC312030950185E
:1004800000E50F2401F50FE4350EF50EE4350DF50A
:100490000DE4350CF50C80D4A2AF9207C2AF75976E
:1004A000DE7597ADA20792AFE4F50FF50EF50DF5E9
:1004B0000CE47FCCFEFDFCAB0FAA0EA90DA80CC36B
:1004C000120309501800E50F2401F50FE4350EF56D
:1004D0000EE4350DF50DE4350CF50C80D47597045C
:1004E0007597A522C0E0C0F0C083C082C0D075D08F
:1004F00000C000C001C002C003C004C005C006C0E7
:1005000007539BCFD207120734D007D006D005D0AF
:1005100004D003D002D001D000D0D0D082D083D07C
:10052000F0D0E032C0E0C0F0C083C082C0D075D04F
:1005300000C000C001C002C003C004C005C006C0A6
:100540000753915F12074FD007D006D005D004D0D3
:1005500003D002D001D000D0D0D082D083D0F0D050
:10056000E032C0E0C0F0C083C082C0D075D000C00F
:1005700000C001C002C003C004C005C006C007C25D
:10058000CF120755D007D006D005D004D003D00233
:10059000D001D000D0D0D082D083D0F0D0E032C013
:1005A000E0C0F0C083C082C0D075D000C000C001E0
:1005B000C002C003C004C005C006C007D2071207AE
:1005C00039D007D006D005D004D003D002D001D056
:1005D00000D0D0D082D083D0F0D0E032C0E0C0F0E4
:1005E000C083C082C0D075D000C000C001C002C0AE
:1005F00003C004C005C006C007D207120026D007FA
:10060000D006D005D004D003D002D001D000D0D085
:10061000D082D083D0F0D0E0327F647E00E4FDFC55
:10062000C3ED9FEC9E501B5388CF758CF7758ADD08
:10063000438810208D057597A580F80DBD00010C2D
:1006400080DE22D291D290E4FDFCC3ED9FEE648067
:10065000F8EC6480985008000DBD00010C80EBC2DE
:1006600091C2902204100000000002140040011604
:1006700003011700041800000064C102C100C10199
:10068000C10300759F18E4FFEFC394207480948029
:1006900050030F80F3439D23439B8022120715C212
:1006A0000712071CC207120722C207120728C20737
:1006B00002072EAF885388AF758CFF758AFFEF5401
:1006C00040FEEF54104E428822E59154045391FBB2
:1006D0007593FF7592E0429122E4F5F1F5A4F5F2ED
:1006E000F5A543EF08438702224391047FC87E00AB
:1006F00012061D5391FB0207528F1F8E1E8D1D8CFB
:100700001CC20322758E047589014388052275E693
:10071000A875A8A522C292C291C29022A207B39244
:100720008322A207B3928422A207B3928522A20752
:10073000B3928622A207920022A20792012275E3B9
:10074000402275E40222A20222A20022A20122B2C9
:080750008722C28722B2922227
:00000001FF
